:100000000C9488030C94B0030C94B0030C94B003CC
:100010000C94B0030C94B0030C94B0030C94B00394
:100020000C94B0030C94B0030C94B0030C94B00384
:100030000C94B0030C94B0030C94B0030C94B00374
:100040000C949C220C94B0030C94B0030C94B00359
:100050000C94B0030C94B0030C94B0030C94B00354
:100060000C94B0030C94B0034602000000FF08009B
:10007000053E5B4F5B3E053E6B4F6B3E051C3E7C79
:100080003E1C05183C7E3C18051C577D571C051C62
:100090005E7F5E1C0400183C1805FFE7C3E7FF0401
:1000A0000018241805FFE7DBE7FF0530483A060E85
:1000B00005262979292605407F05050705407F0586
:1000C000253F055A3CE73C5A057F3E1C1C080508A5
:1000D0001C1C3E7F0514227F221405FFFFFFFFFF3B
:1000E00005F0F0F0F0F003FFFFFF05000000FFFF58
:1000F000050F0F0F0F0F0508047E04080510207E62
:1001000020100508082A1C0805081C2A080805AA4A
:10011000005500AA05AA55AA55AA0530383E383020
:1001200005060E3E0E06020000015F0307000705EC
:10013000147F147F1405444AFF4A32056313086490
:10014000630536494936480107033E4141034141B1
:100150003E05082A1C2A080508083E08080260E037
:100160000408080808026060056010080403053EE2
:100170005149453E0304027F0571494949460541FD
:1001800049494936050F0808087F054F4949493153
:10019000053E4949493005030101017F05364949BA
:1001A000493605064949493E026C6C026CEC03086D
:1001B0001422041414141403221408050159090903
:1001C00006053E415D594E057E0909097E057F49B8
:1001D000494936053E41414141057F4141413E0586
:1001E0007F49494941057F09090901053E414149C6
:1001F00079057F0808087F03417F4105304141416F
:100200003F057F08142241057F40404040057F02A2
:100210000C027F057F0408107F053E4141413E05E9
:100220007F09090906053E4141617E057F091929BB
:10023000460546494949310501017F0101053F4015
:1002400040403F051F2040201F053F4038403F05EC
:1002500063140814630503047804030561514945D8
:1002600043037F41410503040810600341417F05BA
:100270000402010204048080808003010204043827
:1002800044447C047F44443804384444440438449F
:10029000447F043854545804047E05010418A4A46F
:1002A0007C047F040478017D0384857C047F10280E
:1002B00044017F057C04780478047C0404780438C5
:1002C00044443804FC24241804182424FC047C042A
:1002D0000408045854543403047F04043C40407C14
:1002E000041C20407C053C4030403C046C10106CE9
:1002F000041CA0A07C046454544C04083641410101
:100300007F04414136080402010201057F41414159
:100310007F053E55555541053844443844057C2AEF
:100320002A3E14057E0202060605027E027E0205B2
:100330006355494163053844443C0405407E201E12
:10034000200506027E0202086313086463006060F1
:10035000052A2A2A2A2A03514A4403444A510500FD
:1003600000FF010303E080FF053612362436030246
:100370000502021818021010053040FF0101041F89
:1003800001011E000000000901017F017F020C0233
:100390007F0000000000000100017D0418247E247D
:1003A00004447E454105221C141C2205012A7C2A96
:1003B000010177044E55553903020002077E81BDC5
:1003C000A5A5817E0326292F0508142A14220408D6
:1003D00008081803080808077E81BD95A9817E05D5
:1003E00001010101010302050203242E2403191552
:1003F000120315150A02020104F8204078050609C7
:100400007F017F021818040080A0C003121F100390
:100410002629260522142A140808402F1008041E35
:10042000117C08402F10080462554C0915553F10E7
:1004300008041E117C053048484D400578151614F7
:1004400078057814161578057A1514157A05781636
:10045000151679057815141578057814151478078C
:100460007E09097F494941059EA1612121057C54EE
:10047000554644057C54564544057E55544546052D
:100480007C5554454403457E4403447E4503467DE4
:100490004603457C4505087F49413E057C0A1122FB
:1004A0007D053844454638053844464538053A45C3
:1004B00044453A05384645463905384544453805EA
:1004C0002214081422057C625A463E053C404142F3
:1004D0003C053C4042413C053C4241423C053C41DC
:1004E00040413C0502047A0502043F12120C057ECD
:1004F00049494E30043845467C043844467D04382A
:1005000046457E043A45467D043845447D04304ADC
:100510004D7A0720545438545458049CA262220443
:10052000385556580438545659043856555A0438D4
:1005300055545902017A027A0103027902030278C2
:100540000204304B4B3C047A090A710430494A30AA
:100550000430484A3104304A49320432494A3104AD
:10056000394444390508082A08080438544C38042A
:10057000384142780438404279043842417A043A9A
:1005800040407A0418A0A27904FC282810041AA07C
:10059000A07A000000000000000000000000000041
:1005A000000000000000000000000000000000004B
:1005B000000001000000000000000000000000003A
:1005C000000000043E49453E04427F400004625161
:1005D00049460422414936041C127F100426454531
:1005E00039043E4949320401611907043649493644
:1005F000042649493E0114000000000000000000EC
:1006000000000000000000000000000000000000EA
:1006100000000000000000000000000000000000DA
:1006200000000000000000000000000000000000CA
:1006300000000000000000000000000000000000BA
:1006400000000000000000000000000000000000AA
:10065000000000000000000000000000000000009A
:10066000000000000000000000000000000000008A
:10067000000000000000000000000000000000007A
:10068000000000000000000000000000000000006A
:10069000000000000000000000000000000000005A
:1006A000000000000000000000000000000000004A
:1006B0000000000000000000000000000000000832
:1006C0000002010000030407000000000000000019
:1006D00000000000250028002B000000000024007E
:1006E00027002A0004040404040404040202020291
:1006F00002020303030303030102040810204080E5
:100700000102040810200102040810205028742857
:1007100011241FBECFEFD8E0DEBFCDBF11E0A0E0B7
:10072000B1E0E4E3FCE502C005900D92AA3AB107FE
:10073000D9F722E0AAEAB1E001C01D92AB32B207BC
:10074000E1F713E0C7E8D3E004C02197FE010E945F
:10075000DD29C638D107C9F70E94E6220C940D2E78
:100760000C940000829590E09C0135952795359575
:1007700027952373880F991F880F991F8C7C282B2E
:1007800030E0C901959587958575220F331F2A7A28
:10079000822B089590E0FC01E850F94F24918C5190
:1007A000994FFC018491882399F090E0880F991F5C
:1007B000FC01E652F94FA591B491FC01E053F94FC9
:1007C000859194918FB7F894EC91E22BEC938FBFC5
:1007D0000895CF93DF93262F2695382F70E0680F6A
:1007E000791FFC018E2F831B821750F48191615079
:1007F0007109DB019C91EF01219798838C93F2CFD3
:10080000DF91CF910895482FFC018E2F841B86170E
:10081000E0F4219130E0C901959587958575220F07
:10082000331F2A7A822B90E09C01359527953595C8
:1008300027952373880F991F880F991F8C7C822B13
:100840008295DF0111978C93E0CF0895FC0180A57C
:10085000882331F0A5A1B6A19D967C936E939C97B9
:1008600080A5882331F0A5A1B6A157965C934E933D
:10087000569780A5882371F0A5A1B6A118961C9261
:100880001E9217971A961C921E9219971C961C92EC
:100890001E921B9780A5882359F005A0F6A1E02D94
:1008A00081E090E0918F808F138E128E16861586D0
:1008B000089590E0FC01E454F94F2491FC01E850C4
:1008C000F94F3491FC01EC51F94FE491EE23C9F05A
:1008D000222339F0233001F1A8F4213019F122301C
:1008E00029F1F0E0EE0FFF1FE053F94FA591B4910D
:1008F0008FB7F894EC91611126C030953E233C935C
:100900008FBF08952730A9F02830C9F0243049F767
:10091000809180008F7D03C0809180008F778093CD
:100920008000DFCF84B58F7784BDDBCF84B58F7D2A
:10093000FBCF8091B0008F778093B000D2CF8091B1
:10094000B0008F7DF9CF3E2BDACF2FB7F8946091AE
:1009500023027091240280912502909126022FBFDC
:100960000895FC01848D90A1A6A5B7A591FD15C0A1
:10097000882381F0808D918D0597A9F481E024A5CD
:1009800035A52A173B0709F080E080AB1197B7A780
:10099000A6A70895828D938DEFCF882379F0808D5F
:1009A000918D059759F7CD01019697A786A781E00C
:1009B00011969C91911180E080AB0895828D938D6A
:1009C000F0CFFC01868997898230910591F42389C3
:1009D000348936A325A331A720A78230910561F47D
:1009E0002189328933A722A7029749F08FEF87A385
:1009F000089521893289EDCF23893489F3CF81E0AD
:100A0000F6CFCF92DF92EF92FF921F93CF93DF93B7
:100A1000DC0158961C92589788E059968C93599708
:100A20005A961C925A975C961C921E925B978FEF77
:100A300090E05E969C938E935D9790961C921E928A
:100A40005F9756968D919C915797009709F478C0BF
:100A5000FC012491263409F031C03196E491E13053
:100A600009F453C022E030E0E23021F5FC01329677
:100A700024913196E49130E0322F22272E0F311D40
:100A80005C963C932E935B97FC01349624913196AF
:100A9000E49130E0322F22272E0F311D5E963C93D9
:100AA0002E935D97FC013696E4915996EC935997F5
:100AB00027E030E090963C932E935F975F96CD9021
:100AC000DC909097F12CE12C5B962D913C915C97FA
:100AD0005D96CD91DC915E9710E0C217D30770F15F
:100AE000FC01EC0DFD1D4491141708F4142F50E087
:100AF00070E060E04F5F5F4F6F4F7F4FC40ED51EB9
:100B0000E61EF71E2F5F3F4FE8CFFC013296E491BF
:100B1000F0E05C96FC93EE935B97FC013396E491D6
:100B2000F0E05E96FC93EE935D97FC013496E491C1
:100B30005996EC93599725E030E0BCCF5A961C9318
:100B4000DF91CF911F91FF90EF90DF90CF900895AC
:100B5000FC018385681738F52485358579E0679F22
:100B6000200D311D1124848150E09381992371F06F
:100B7000882331F087E090E0FC01E41BF50BAF0126
:100B8000240F351FF90180810C94B203882331F0C2
:100B900087E090E0BC01641B750BAB01240F351F8F
:100BA000F9018081089580E008958F929F92AF921D
:100BB000BF92CF92DF92EF92FF92CF93DF93FC012F
:100BC000242F30E08381882309F447C087E090E038
:100BD000821B930B91E001C0990F8A95EAF78385F8
:100BE000681708F040C024853585A90189E0689F11
:100BF000400D511D1124BA01E48130E020E080E075
:100C0000A7E0B0E0C12CD12C7601C394F22FAD0146
:100C1000421B530BE11101C0A901460F571FEA0106
:100C20004881492351F04601570104C0880C991CA2
:100C3000AA1CBB1CFA95D2F788292F5F3F4F28309A
:100C4000310521F7DF91CF91FF90EF90DF90CF90AA
:100C5000BF90AF909F908F90089591E001C0990F41
:100C60004A95EAF7BCCF80E0EDCFFC01228121114B
:100C70000C94D5050C94A805462F477023E0769573
:100C800067952A95E1F70C943506CF93DF9300D052
:100C9000CDB7DEB769831A82DC01ED91FC91008447
:100CA000F185E02DBE016F5F7F4F099581E090E0F7
:100CB0000F900F90DF91CF910895089590E080E01C
:100CC00008950F931F93CF93FC01A081B1815A9691
:100CD000CC9186A9C80F83A98C17A0F48F0184A991
:100CE00095A9009711F00E949C2AF801C3AB8C2FA4
:100CF00090E0009711F481E090E00E94002AF80152
:100D000095AB84ABCF911F910F910895CF92DF9255
:100D1000EF92FF920F931F93CF93DF937C016B01B0
:100D2000EA01CA0101960E94002A8C010097F1F0A5
:100D3000AE01B6010E94252BF801EC0FFD1F1082B9
:100D4000D701ED91FC910084F185E02DB801C70138
:100D50000995C8010E949C2ACE01DF91CF911F9175
:100D60000F91FF90EF90DF90CF900895D0E0C0E01A
:100D7000F3CFCF92DF92EF92FF920F931F93CF9317
:100D80006C017B01C42F8901DC01D196ED91FC91AE
:100D9000309709F1808191818E159F05C1F4028001
:100DA000F381E02D80818C1708F4C82F4C2F50E080
:100DB000BF016F5F7F4FC8010E94252B8C2FCF9101
:100DC0001F910F91FF90EF90DF90CF9008950480D6
:100DD000F581E02DDDCFF6018081918122AD33AD2B
:100DE000DC0156964D915C912417350751F0211581
:100DF000310511F428E630E0FC01378B268B0E9488
:100E000001050115110509F448C0D6012D913C9149
:100E1000F901878D90A1B0E0A0E0438D548DE416D8
:100E2000F506A0F1658D768D6E157F0578F16689E2
:100E30007789FB01E80FF91FE416F50659F0E491F4
:100E40008E0F911DA11DB11D0196A11DB11D4F5FFA
:100E50005F4FEFCF4491C41710F50196A11DB11D4E
:100E6000A801801B910B642F601B6C1708F0A6CFA4
:100E7000BC01640F751FD9015696ED91FC91E60FE8
:100E8000F71FE491DA01ED93AD01EDCF4C2F50E067
:100E900070E060E0C8010E942E2BC0E08FCFC491AB
:100EA000DCCF1F93CF93DF93EC01142F2CA93DA926
:100EB0004BA90E94B906112389F0882379F090E0AC
:100EC0002EA9921758F42BA9821730F4ECA9FDA98A
:100ED000E80FF11D10828F5F9F5FF2CFDF91CF91FE
:100EE0001F9108950F931F93CF93DF93EC018B0114
:100EF000EEA5FFA541E08181811101C040E0608144
:100F000070E0CE010E945107F801808328A19C8DDA
:100F100021FD10C0992359F0288D398D25303105D8
:100F200081F4682F8CA99DA90E94E9030AC02A8D2B
:100F30003B8DF4CF9923B9F0288D398D25303105BB
:100F400081F788A180FF06C0F80160818CA99DA966
:100F50000E940304CE010E94B10481E0DF91CF9191
:100F60001F910F9108952A8D3B8DE8CF0F931F930A
:100F7000CF93DF93EC01FB011082ACA5BDA5BFA709
:100F8000AEA7109719F08C91811108C081E088AB51
:100F900080E0DF91CF911F910F91089518AA8C8D59
:100FA00098A191FD10C0882359F0888D998D0597DF
:100FB00081F40D900020E9F71297BFA7AEA709C0F2
:100FC0008A8D9B8DF4CF882331F1888D998D05977B
:100FD00081F7AEA5BFA541E011968C9111978111C3
:100FE00001C040E08B016C9170E0CE010E9451077E
:100FF000F801808328A19C8D21FD13C0992371F0F5
:10100000288D398D2530310599F4682F8CA99DA93B
:101010000E94E9030DC08A8D9B8DD9CF2A8D3B8D0F
:10102000F1CF992399F0288D398D2530310569F755
:1010300088A180FF06C0F80160818CA99DA90E944B
:101040000304CE010E94B10481E0A3CF2A8D3B8D21
:10105000ECCFFC01438550E0440F551F70E060E089
:10106000868597850C942E2BCF92DF92EF92FF927C
:101070000F931F93CF93DF93EC0188858823A1F012
:101080008091AC01882361F08FB7F8949091AC0106
:10109000913041F59DB39093AB019DB39DBB8FBF44
:1010A00080E58CBD81E08DBD60E08F810E94590498
:1010B00088858823D1F030E020E08B8590E0880F90
:1010C000991F28173907C8F5EE85FF85E20FF31F32
:1010D00080818EBD00000DB407FEFDCF8EB52F5F61
:1010E0003F4FEBCF8093AB01DBCF10E000E08B856F
:1010F00090E0880F991F08171907F8F4EE85FF850F
:10110000E00FF11FE080DE80CD8088E0F82E6E2DAC
:10111000661F6627661F8C2D0E945904EE0C61E045
:101120008D2D0E94590460E08D2D0E945904FA947F
:10113000F110EDCF0F5F1F4FDACF61E08F810E947A
:1011400059048885882371F08091AC01882351F07F
:101150009FB7F8942091AC018091AB01213059F4F4
:101160008DBB9FBFDF91CF911F910F91FF90EF90AB
:10117000DF90CF9008958FBFF5CFBF92CF92DF92CF
:10118000EF92FF920F931F93CF93DF93FC01238580
:10119000621708F04EC0EC01F9E06F9F7001112456
:1011A000D12CC12C062F10E0BB24B394BC0CEC85D1
:1011B000FD85EE0DFF1D808590E00C2C02C09595FD
:1011C00087950A94E2F780FF27C0CE010E94290884
:1011D0008B858150990B801B910B880F991F2E8551
:1011E0003F85820F931FFC01B082EC85FD85EE0DDB
:1011F000FF1DEC0DFD1D40818B858150990B801BDF
:10120000910B880F991F2E853F85820F931FFC013C
:101210004183CE010E943408FFEFCF1ADF0A88E035
:10122000C816D10409F68C859D85E80EF91EF701D4
:101230001086DF91CF911F910F91FF90EF90DF907B
:10124000CF90BF900895EF92FF921F93CF93DF93BB
:10125000DC01EB0183E0D695C7958A95E1F71B96F3
:101260008C911B9710E0C81708F058C09B0127709D
:10127000332712967C91129769E0C69FC001112412
:101280001C96ED91FC911D97E80FF91F14965C9147
:10129000149713966C911397442309F467C077232E
:1012A00009F453C0552309F440C042E050E0E40F74
:1012B000F51F10816623E1F147E050E07A01E21A60
:1012C000F30A41E050E060E070E004C0440F551FB5
:1012D000661F771FEA94D2F7412B40831C96ED914D
:1012E000FC911D97E80FF91F808514969C91149727
:1012F00012964C911297442309F477C044E091115F
:1013000001C040E2482B408754961C91549711230A
:1013100009F47FC0CD016C2F0E94BD08812FDF91A1
:10132000CF911F91FF90EF90089545E050E0BFCF1F
:1013300041E050E060E070E0022E04C0440F551F11
:10134000661F771F0A94D2F7C7CF552369F047E08D
:1013500050E0421B530BE40FF51F408154E0611134
:1013600001C050E2452BB9CFA901F5CF772361F138
:101370005523D1F042E050E0E40FF51F10816623C1
:10138000B1F047E050E07A01E21AF30A41E050E0A0
:1013900060E070E004C0440F551F661F771FEA9499
:1013A000D2F74095412399CF45E050E0E5CF41E0A9
:1013B00050E060E070E0022E04C0440F551F661F2D
:1013C000771F0A94D2F7EDCF552369F047E050E03C
:1013D000421B530BE40FF51F40815BEF611101C00D
:1013E0005FED45237ACFA901F5CF992331F047E08E
:1013F00050E0BA01621B730B9B0141E050E060E0DA
:1014000070E004C0440F551F661F771F2A95D2F75E
:1014100079CF11E083CF0F931F93CF93DF93EC012C
:10142000162F042F822F9B8191110E94B20399E005
:10143000199F90011124AC85BD85A20FB31F602FA9
:1014400070E09C8147E050E0461B570B911101C0B2
:10145000AB01A40FB51F8C93EC85FD85E20FF31F44
:1014600020858C818823F1F047E050E0461B570B24
:1014700081E090E0A0E0B0E004C0880F991FAA1FAF
:10148000BB1F4A95D2F7822B80878C89882321F055
:10149000612FCE010E94BD0881E0DF91CF911F91A5
:1014A0000F91089581E090E0A0E0B0E004C0880FC3
:1014B000991FAA1FBB1F0A95D2F7E5CF9F92AF9243
:1014C000BF92CF92DF92EF92FF920F931F93CF9331
:1014D000DF93FC0189E0689FE001112481E090E046
:1014E000A0E0B0E06C017D01042E04C0CC0CDD1C3A
:1014F000EE1CFF1C0A94D2F7BC2C7C2D709507E0E3
:1015000010E0041B110904C0880F991FAA1FBB1FFC
:101510000A95D2F7A82E382F309590E080E0022F60
:1015200010E027E0E22EF12CAC01A485B585AC0FCC
:10153000BD1F248193806801082E02C0D594C794F2
:101540000A94E2F7C0FE2AC0222319F0A701481B23
:10155000590BA40FB51F2C914B2D91104A2D242B04
:101560002C93019688309105F9F684859585C80FEE
:10157000D91F8FEF88878489882319F0CF010E94B3
:10158000BD0881E0DF91CF911F910F91FF90EF9007
:10159000DF90CF90BF90AF909F900895222319F0D5
:1015A000A701481B590BA40FB51F2C91472F911071
:1015B000432F2423D5CFFC0152813385552321F0BD
:1015C000631730F40C945E0A631710F40C940B0A42
:1015D00080E00895242F462F477033E07695679575
:1015E0003A95E1F70C94DB0AFC01528133855523CF
:1015F00031F0631750F4483041F00C940B0A631734
:1016000020F4483011F00C945E0A80E00895CF92E7
:10161000DF92EF92FF920F931F93CF93DF93FC0122
:10162000722F82815385882309F45DC0651708F005
:10163000BEC0283009F4BBC009E0609F70011124CE
:10164000848595858E0D9F1D50E0A22FB0E02481EA
:101650002223B9F127E030E0E901C41BD50BAE012C
:101660002A1B3B0B480F591FEA014881820F931F29
:10167000EC01488384859585E701C80FD91F28852B
:101680008481882301F147E050E04A1B5B0B81E035
:1016900090E0A0E0B0E004C0880F991FAA1FBB1F14
:1016A0004A95D2F7822B88878489811118C081E0FE
:1016B000DF91CF911F910F91FF90EF90DF90CF902E
:1016C00008959D01CFCF81E090E0A0E0B0E004C09C
:1016D000880F991FAA1FBB1F7A95D2F7E3CFCF01BE
:1016E0000E94BD08E4CFA42FB0E09381992309F4B0
:1016F0004FC027E030E02A1B3B0B91E001C0990F5F
:101700002A95EAF76517A0F6783091F2D9E06D9F37
:10171000A001112401E010E020E030E0680179012F
:10172000072E04C0CC0CDD1CEE1CFF1C0A94D2F763
:10173000DC2DCC2DC095A7E0B0E0A71BB10904C0FB
:10174000000F111F221F331FAA95D2F7F02E00950C
:1017500030E020E0A485B585A40FB51FA20FB31F0C
:101760008C917381182F1923D9F0711117C07D2F17
:10177000872B8C932F5F3F4F2830310559F7848595
:101780009585480F591F8FEFDA0118968C938CCFEF
:1017900091E001C0990F4A95EAF7B4CF7F2DE8CFC9
:1017A000711103C07C2F8723E4CF702FFCCF80E022
:1017B0007FCF8F929F92AF92BF92CF92DF92EF92A4
:1017C000FF920F931F93CF93DF93CDB7DEB7289788
:1017D0000FB6F894DEBF0FBECDBF8C01D62E29E028
:1017E000629F70011124FA013197E730F10558F436
:1017F000E450F44F0C94DD294F0C810CB70CEE0C27
:101800002F0D6F0D8F0DDC0112968C918823C1F185
:1018100030E020E0D8011C96ED91FC911D97EE0D73
:10182000FF1DE20FF31F808113969C91992331F1E4
:1018300090E09595879580832F5F3F4F2830310545
:1018400049F7F80184859585E80EF91E8FEFD701D9
:1018500018968C9381E028960FB6F894DEBF0FBEE1
:10186000CDBFDF91CF911F910F91FF90EF90DF904F
:10187000CF90BF90AF909F908F900895880FDBCF4F
:1018800087E090E0D8011C96ED91FC91EE0DFF1DD4
:10189000E80FF91F208121830197A0F7D2CFFC0127
:1018A00082818823E1F030E020E0D8011C96ED91A0
:1018B000FC911D97EE0DFF1DE20FF31F8081139623
:1018C0009C91992341F0880F80832F5F3F4F2830F0
:1018D000310559F7B6CF90E095958795F5CF81E022
:1018E00090E0D8011C96ED91FC91EE0DFF1DE80FE4
:1018F000F91F20813197208301968830910589F75F
:10190000A0CFFC01C28085898823F9F040E0C8019E
:10191000CC20C1F00E94A8058983CC20C1F020E032
:10192000CC24C394C20E4C2D6D2DC8010E94070B10
:101930002C2D2730A9F7298147E06D2DC8010E9481
:10194000F40A7FCF0E94D505E7CF1982E6CF87E062
:1019500090E0D8011C96ED91FC91EE0DFF1DE80F73
:10196000F91F2081220F2083019798F7E4CFFC0113
:10197000C28085898823D9F047E0C801CC20A1F036
:101980000E94A8058983CC20A1F028E0CC24CA9429
:10199000C20E4C2D6D2DC8010E94070B2C2DC110BD
:1019A000F5CF298140E0C9CF0E94D505EBCF198240
:1019B000EACF30E020E0D8011C96ED91FC91EE0DCD
:1019C000FF1DE20FF31F808190E09595879580833E
:1019D0002F5F3F4F2830310571F7E3CFFC01828143
:1019E0008823C1F0B12CA12CD8011C96CD90DC909D
:1019F000CE0CDF1CCA0CDB1CF60180810E94B203F6
:101A0000D6018C93BFEFAB1ABB0AE8E0AE16B10467
:101A100059F717CF30E020E047E050E0D8011C969E
:101A20008D919C918E0D9F1DFC01E20FF31FD080C4
:101A3000BA01621B730B860F971FDC018C918083A8
:101A4000D8011C96ED91FC91EE0DFF1DE60FF71FDE
:101A5000D0822F5F3F4F2430310501F7F2CEFC01D9
:101A60008281882329F130E020E047E050E0D8016E
:101A70001C968D919C918E0D9F1DFC01E20FF31F12
:101A8000D080BA01621B730B860F971FDC018C910B
:101A90008083D8011C96ED91FC91EE0DFF1DE60FA1
:101AA000F71FD0822F5F3F4F2430310501F7C9CE99
:101AB000B12CA12CF801C484D584CE0CDF1CCA0C37
:101AC000DB1CD6018C910E94B203F6018083FFEFEC
:101AD000AF1ABF0A28E0A216B10461F7B2CECE0158
:101AE00001965C014C0187E0C82E4C2D6D2DC8017C
:101AF0000E943506D4018D934D01CA94BFEFCB12DD
:101B0000F4CFC12CF50121915F014C2D6D2DC80141
:101B10000E94F40AC394F8E0CF12F4CF92CE90E082
:101B200080E0D8011C96ED91FC91EE0DFF1DE80FB1
:101B3000F91F20812095208301968830910589F72F
:101B400080CECF92DF92EF92FF920F931F93CF93AD
:101B5000DF93EC01DD24D394F12CE12C01E010E0C3
:101B6000B9E0CB2ECE010E94290898010E2C02C0AC
:101B7000220F331F0A94E2F7E0E090E08B85E8172C
:101B800098F5EC9DA0011124AC85BD85A40FB51F6F
:101B900018966C9170E062237323672B19F16E2FF6
:101BA00070E08150990B861B970B880F991FAE85AB
:101BB000BF85A80FB91FDC92AC85BD85A40FB51FEA
:101BC000AE0DBF1DFC918B858150990B861B970B29
:101BD000880F991F4E855F85840F951FDC01119634
:101BE000FC9391E0EF5FCACF992319F0CE010E94D8
:101BF0003408BFEFEB1AFB0AD39488E0E816F1042F
:101C000009F0B0CF80E099E02B85821748F4EC858D
:101C1000FD85899FE00DF11D112410868F5FF4CFA3
:101C2000DF91CF911F910F91FF90EF90DF90CF90B8
:101C30000895CF93DF93C9E078E05FEF4617B0F0E7
:101C40006C9F90011124FC01A485B585A20FB31FE0
:101C5000FD01D72F1192DA95E9F7DC011C96ED9181
:101C6000FC91E20FF31F50876F5FE8CFFC012489DE
:101C7000222321F0DF91CF910C94A10DDF91CF9120
:101C800008956F927F928F929F92AF92BF92CF9260
:101C9000DF92EF92FF920F931F93CF93DF93CDB715
:101CA000DEB729970FB6F894DEBF0FBECDBF8C010B
:101CB000E62EF42E5901D12C461708F4D7C0DC01CA
:101CC0005496DC90549754961C9224303105B8F504
:101CD00022303105D0F52130310509F4DDC0D801BD
:101CE00055968C91882309F487C0B8E0FB9EB0011B
:101CF0001124695F7F4FC8010E943C06C82EAE2C9C
:101D0000B12C8F2D0F2C000C990B8A159B050CF410
:101D10008AC050E040E06F2DC8010E94D90B992481
:101D20009A949F0C47E0692DC8010E943506282F20
:101D300040E06F2DC8010E94DB0AF92CE2CF24306D
:101D4000310561F02830310550F6A5016E2DC8012E
:101D50000E94D90BE394FE14C0F77FC0642F70E09B
:101D6000AE2CB12C4B018A189B08BFEF8B1A9B0A33
:101D700097FE03C0EFEF8E1A9E0A95948794712CFC
:101D800029E0C22E472D50E0481559050CF0D2C06D
:101D9000F80124853585FA01EA0DFB1DCE9EC001B0
:101DA000CF9E900D1124820F931FFC01DE0111962E
:101DB0006C2C01900D926A94E1F7FB01E41BF50B8A
:101DC000CE9EA001CF9E500D1124F901E40FF51F06
:101DD000DC018C2D01900D928A95E1F7F801A48524
:101DE000B585A40FB51FFE0131968C2D01900D9283
:101DF0008A95E1F77394C6CFF801A288B388A1143D
:101E0000B10479F0F8E0FF9EB0011124695F7F4FC3
:101E1000C8010E943C06482F70E060E08F2DF5015C
:101E20000995C12C6CCFD8015096ED91FC9151973A
:101E3000309749F055968C91811105C070E060E0B3
:101E40008E2D0995C82EB50183E0660F771F8A9500
:101E5000E1F74C2DC8010E94EA0AD8015496DC92A1
:101E6000DD2009F471C0C8010E94A10D8D2D2996B5
:101E70000FB6F894DEBF0FBECDBFDF91CF911F919B
:101E80000F91FF90EF90DF90CF90BF90AF909F9019
:101E90008F907F906F900895FC0185898823B1F120
:101EA000F8E06F9FB0011124C8010E943C06C82EC3
:101EB00041E050E06E2DC8010E94D90BBB24B394C1
:101EC000BE0C40E06B2DC8010E943506282F47E06C
:101ED0006E2DC8010E94DB0AEB2CFB1448F7D801D9
:101EE0005096ED91FC915197309749F055968C9111
:101EF000811105C061E070E08F2D0995C82EB8E012
:101F0000FB9EB0011124695F7F4FA3CFA288B388E5
:101F1000A114B10469F0B8E06B9FB0011124C801AD
:101F20000E943C06482F61E070E08E2DF501099576
:101F3000C12CBECF44E050E06E2DC8010E94D90BE9
:101F4000E394FE14B8F789CFDD24D3948FCF8F921A
:101F50009F92AF92BF92CF92DF92EF92FF920F9338
:101F60001F93CF93DF93EC01F62E8D859E8544233E
:101F700009F4E0C08E01095C1F4F35E0C32ED12C5F
:101F800082309105E9F050F08330910509F441C0A9
:101F9000049709F4A8C085E090E00FC0BE01695C19
:101FA0007F4FCE010E94B607811103C086E090E00A
:101FB00004C019AE18AE83E090E09E878D870DC0F7
:101FC0001FAA88A98823B1F0DE86CD868D859E85DF
:101FD0002FA9211116C0059799F7DF91CF911F9175
:101FE0000F91FF90EF90DF90CF90BF90AF909F90B8
:101FF0008F900895B801CE010E9472078111E6CF3B
:10200000E3CF059751F319AE18AE83E090E09E87B9
:102010008D878FA9882329F121E02F2530E04CA15D
:102020006BA1888199810E94410E888199816D8D73
:102030002CA93DA948AD59AD662301F1BA016F5FE6
:102040007F4F79AF68AF240F351FF901408140956C
:10205000FF20F1F06BA1F8E06F9FB00111240E9406
:10206000EA0A2FA988AD99AD2817190609F0B5CF4E
:1020700088A9811115C082E090E09FCFBA016F5FFF
:102080007F4F79AF68AF240F351FF9014081E0CF52
:102090006CA128E0629FB0011124695F7F4FDFCF00
:1020A00029893A89FF20B1F08F859889A901481BB9
:1020B000590BCA0101962BA158E0259F801991095F
:1020C000112499AF88AF181619060CF064CF84E07C
:1020D00090E073CF8CA1E8E08E9FC0011124079699
:1020E000821B930BEECF21E0262730E04CA16BA1A1
:1020F000888199810E94410E888199814D8D4195F9
:10210000FF2081F06BA1F8E06F9FB00111240E94C5
:10211000EA0A88AD99AD019799AF88AF892B09F08C
:102120005CCF39CF6CA128E0629FB0011124695FB8
:102130007F4FEDCF8430910539F0059709F036CF08
:1021400084E090E09E878D8721E02F2530E04CA130
:102150006BA1888199810E94410E888199814D8D62
:102160004195FF2009F445C06BA138E0639FB001A1
:1021700011240E94EA0A0CA110E0ABA0B12C680166
:10218000CA18DB088FEFC81AD80A23E0CC0CDD1C74
:102190002A95E1F78E8D9F8D009721F08C159D0576
:1021A00008F46C010F5F1F4F83E0000F111F8A9529
:1021B000E1F793E0AA0CBB1C9A95E1F7FF2021F10F
:1021C00045017401EA18FB0880169106DCF5B4019C
:1021D000888199810E943C0690E02D8D222389F010
:1021E0002FEF30E08217930769F5EFEF8E1A9E0A02
:1021F000E8CF6CA158E0659FB0011124695F7F4F63
:10220000B8CF30E020E0EECF01501109F12CE12CE5
:102210000A151B05BCF0B801888199810E943C0613
:1022200090E02D8D222359F02FEF30E08217930795
:1022300049F401501109FFEFEF1AFF0AE9CF30E02E
:1022400020E0F4CFEC14FD0408F0B0CEC6CECF935E
:10225000DF93EC014CA16BA1461720F08881998196
:102260000E94190E8D8D882351F027E030E04CA19B
:102270006BA188819981DF91CF910C94410EDF9100
:10228000CF910895CF92DF92EF92FF920F931F9319
:10229000CF93DF93EC010E942711C988DA887E0171
:1022A00087E3E80EF11CB701CE010E94B60719AE14
:1022B00018AE86018B899C89081719077CF18FA9B4
:1022C00028AD39AD8217130611F081110AC01FAA7B
:1022D00088A9811104C0B701CE010E94720719AE0E
:1022E00018AE8FA9882331F38881998148AD59AD03
:1022F0009A012F5F3F4FECA9FDA9E40FF51F4D8D0B
:1023000039AF28AF442341F040814095B8010E9485
:10231000EA0A01501109CECF4081F8CFDF91CF9169
:102320001F910F91FF90EF90DF90CF900895FF9253
:102330000F931F93CF93DF93EC01F62E8D859E852F
:10234000442309F462C08430910530F5019758F1B7
:102350008D859E85059721F483E090E09E878D878B
:10236000CE010E9442110DA11EA12FA18AA59BA5FD
:10237000820F911D27FD9A9580179107E1F04D8DF1
:102380004195B801888199810E94EA0A8FA1080FBE
:10239000111D87FD1A95E9CF0597D1F285E090E0F0
:1023A0009E878D872CC0CE010E94E10483E090E0DF
:1023B0009E878D87CDCFFF2069F06DA17EA1061786
:1023C000170741F04D8D81E048274195888199811B
:1023D0000E94EA0A8DA19EA12FA1022E000C330BB0
:1023E0004AA55BA5420F531F8417950721F445E0CA
:1023F00050E05E874D87820F931F9EA38DA3DF91D0
:10240000CF911F910F91FF9008958430910500F5B1
:10241000019700F1CE010E94421108A519A56DA1F6
:102420007EA18FA1082E000C990B9B01280F391F4C
:1024300020173107B9F04D8D4195B80188819981F8
:102440000E94EA0A8FA1080F111D87FD1A95E7CF98
:10245000059751F5CE010E94E10483E090E09E874C
:102460008D87D8CFFF2079F02AA53BA5820F931F37
:102470006817790741F04D8D81E0482741958881A3
:1024800099810E94EA0A8DA19EA12FA1022E000C23
:10249000330B4AA55BA5420F531F8417950709F01C
:1024A000AACF46E050E0A5CF86E090E079CFCF926A
:1024B000DF92EF92FF921F93CF93DF93EC01D42E24
:1024C0008D859E85662309F458C084309105A8F552
:1024D0000197D0F1CE010E9442112DA13EA12830DA
:1024E000310569F1E8A4F9A481E090E001C0880F0A
:1024F0002A95EAF7182FD11010952FA18AA59BA530
:10250000820F911D27FD9A958E159F0549F1C88070
:10251000D980B701C6010E943C069D8D412F9923A9
:10252000E9F04095482BB701C6010E94EA0A8FA145
:10253000E80EF11C87FDFA94E0CF059759F285E08B
:1025400090E09E878D8711C0CE010E94E1041EA2FB
:102550001DA283E090E09E878D87BCCF4823E3CF08
:102560008DA19EA101969EA38DA3DF91CF911F9176
:10257000FF90EF90DF90CF9008958430910598F50B
:10258000019798F1CE010E9442118DA19EA110E009
:1025900097FD05C011E001C0110F8A95EAF7E8A484
:1025A000F9A4D11010952FA18AA59BA5820F911D8A
:1025B00027FD9A958E159F0531F1C880D980B70106
:1025C000C6010E943C069D8D412F9923D1F0409574
:1025D000482BB701C6010E94EA0A8FA1E80EF11C40
:1025E00087FDFA94E0CF0597C1F4CE010E94E10483
:1025F00087E090E09EA38DA383E090E09E878D8787
:10260000C1CF4823E6CF8DA19EA197FF04C026E04D
:1026100030E03E872D870197A6CF86E090E091CFEE
:10262000FF920F931F93CF93DF93EC01F42E8D85D0
:102630009E85662309F444C08430910538F50197DE
:1026400060F1CE010E9442112DA13EA18AA59BA559
:1026500028173907E9F008A519A58FA1082E000C45
:10266000990B2DA13EA14AA55BA5480F591F401704
:10267000510709F464C0F11018C002171307C1F420
:102680008FA1080F111D87FD1A95E7CF0597C9F295
:1026900085E090E09E878D8756C0CE010E94E104C0
:1026A00083E090E09E878D87CCCF0217130741F718
:1026B0004D8D4195B801888199810E94EA0AE0CF49
:1026C0008430910500F5019700F1CE010E9442117E
:1026D00008A519A54AA55BA58FA1082E000C990B8A
:1026E0002DA13EA1BA01680F791F6017710701F192
:1026F000F11013C00217130799F48FA1080F111DD1
:1027000087FD1A95E7CF059721F5CE010E94E104D8
:1027100083E090E09E878D87D8CF0217130769F773
:102720004D8D4195B801888199810E94EA0AE5CFD3
:102730002417350724F446E050E05E874D87820F6A
:10274000931F9EA38DA3DF91CF911F910F91FF90B7
:10275000089586E090E09ECFCF92DF92EF92FF92B5
:102760000F931F93CF93DF93EC01162F8D859E85DA
:10277000442309F458C084309105B0F5019708F45A
:102780003AC0CE010E9442112DA13EA190E080E00E
:10279000111102C08FEF90E02817390739F1E8A432
:1027A000F9A42FA18AA59BA5820F911D27FD9A95BB
:1027B0008E159F0581F10D8DC880D980B701C601A6
:1027C0000E943C06011180954DA1111140954823AE
:1027D00001114095B701C6010E94EA0A8FA1E80ED7
:1027E000F11C87FDFA94DDCF059759F285E090E062
:1027F0009E878D8771C0CE010E94E1048FEF90E02B
:10280000111102C081E090E09EA38DA383E090E0CF
:102810009E878D87B6CF8DA19EA1112309F457C045
:102820009595879557C08430910550F5019750F1E3
:10283000CE010E944211E8A4F9A42FA18AA59BA56C
:10284000820F911D27FD9A958E159F0559F10D8DCB
:10285000C880D980B701C6010E943C06011180954D
:102860004DA111114095482301114095B701C601B2
:102870000E94EA0A8FA1E80EF11C87FDFA94DDCFD1
:102880000597C1F4CE010E94E10481E090E01111AE
:1028900002C08FEF90E09EA38DA383E090E09E871F
:1028A0008D87C6CF8DA19EA1111107C0009709F099
:1028B000B7CF06C086E090E09BCF8F3F910539F4FB
:1028C00026E030E03E872D87112309F4A9CF880F39
:1028D000991F81609EA38DA3DF91CF911F910F91CE
:1028E000FF90EF90DF90CF900895EF92FF920F93BB
:1028F0001F93CF93DF93EC01162F8D859E85442384
:1029000009F488C08330910528F00397B1F185E080
:1029100090E02AC069897A898B899C899B01281B50
:10292000390BC90137FD01969595879501969EA3B0
:102930008DA31123B9F04D8D11E041274195681BFE
:10294000790B888199810E94EA0A4D8D4127419532
:102950006B897C898DA19EA1680F791F88819981DF
:102960000E94EA0A83E090E09E878D87DF91CF91F5
:102970001F910F91FF90EF9008958DA19EA197FD5B
:10298000C6CFCE010E944211F12CE12C6DA17EA197
:10299000E616F706C4F44D8D41956B897C896E0D62
:1029A0007F1D888199810E94EA0A4D8D4195698930
:1029B0007A896E197F09888199810E94EA0A3FEF1E
:1029C000E31AF30AE3CF615071097EA36DA31123CB
:1029D00069F277FDCBCF4D8D11E0412741958B8971
:1029E0009C89680F791F888199810E94EA0A4D8D20
:1029F0004127419569897A898DA19EA1681B790B30
:102A000088819981DF91CF911F910F91FF90EF9075
:102A10000C94EA0A8330910531F108F077C00197F0
:102A200008F477C0CE010E942711CE010E94421106
:102A30001EA21DA2112399F04D8D01E04027419562
:102A400069897A89888199810E94EA0A4D8D402797
:102A500041956B897C89888199810E94EA0A83E08B
:102A600090E09E878D872DA13EA169897A898B8907
:102A70009C89AB01481B590BCA0157FD01969595DE
:102A80008795821793070CF444C04D8D4195621BC6
:102A9000730B888199810E94EA0A4D8D41956B895B
:102AA0007C898DA19EA1680F791F888199810E94E0
:102AB000EA0A2DA13EA12F5F3F4F3EA32DA3112374
:102AC00009F454CF69897A898B899C89AB01481BA9
:102AD000590BCA0157FD0196959587958217930763
:102AE0000CF444CF4D8D11E041274195621B730BCF
:102AF000888199810E94EA0A4D8D412741956B8911
:102B00007C898DA19EA1680F791F7ACF059709F462
:102B100089CF86E090E028CFCF92DF92FF920F938B
:102B20001F93CF93DF93EC01F62E8D859E85442372
:102B300009F484C08330910570F0039751F185E06A
:102B400090E09E878D87DF91CF911F910F91FF902D
:102B5000DF90CF9008951EA21DA2CE010E942711E2
:102B6000FF2099F04D8D11E04127419569897A89BF
:102B7000888199810E94EA0A4D8D412741956B8990
:102B80007C89888199810E94EA0A83E090E09E878F
:102B90008D87CE010E942711CE010E9442110B8920
:102BA0001C8989899A89801B910B97FD01966C017C
:102BB000D594C7948DA19EA1080F191FC816D906D8
:102BC0000CF4BDCF0F5F1F4F69897A898DA19EA13B
:102BD0009B01281B390B0217130744F44D8D4195B7
:102BE000B801888199810E94EA0AECCF01969EA3E0
:102BF0008DA3FF2009F4A7CFC816D9060CF4A3CFE4
:102C00004D8D11E041274195681B790B8881998191
:102C10000E94EA0A4D8D412741956B897C898DA1DF
:102C20009EA1680F791F88819981DF91CF911F91B3
:102C30000F91FF90DF90CF900C94EA0A83309105BA
:102C4000D1F1A0F50197A0F189899A892B893C8956
:102C5000821B930B97FD0196959587959EA38DA357
:102C6000CE010E942711CE010E944211FF20D9F00F
:102C70004D8D11E04127419569897A898DA19EA1E9
:102C8000681B790B888199810E94EA0A4D8D412742
:102C900041956B897C898DA19EA1680F791F8881E0
:102CA00099810E94EA0A83E090E04BCF059761F298
:102CB00086E090E046CF8DA19EA197FDF9CF4D8D86
:102CC000419569897A89681B790B888199810E946D
:102CD000EA0A4D8D41956B897C898DA19EA1680F73
:102CE000791F888199810E94EA0A8DA19EA101978E
:102CF0009EA38DA3FF2009F426CF97FD24CF4D8DF1
:102D000011E04127419569897A897ECFCF92DF9280
:102D1000EF92FF920F931F93CF93DF93EC01D62E88
:102D2000C42E790180E04617E0F02A30310508F022
:102D300069C0CE010E94290892E0E916F10409F465
:102D400053C0C0F4E114F10429F1F1E0EF16F104ED
:102D500009F443C0D394CD1478F7CE010E9434080F
:102D600081E0DF91CF911F910F91FF90EF90DF9065
:102D7000CF90089583E0E816F104E9F194E0E916B4
:102D8000F10441F781E00115110509F480E0819516
:102D900099E006C081E00115110509F080E09CE092
:102DA0004D2D50E02B852150330B241B350B220F6A
:102DB000331F6E857F85260F371FF90190832B8582
:102DC0002150330B241B350B220F331F4E855F859B
:102DD000240F351FF9018183BDCF802F08301105E5
:102DE0000CF087E09BE0DCCF802F003111050CF068
:102DF0008FE09AE0D5CF81E00115110509F480E05C
:102E00009FE0CECF81E00130110509F080E0FBE0CA
:102E1000EF16F10449F08C8B0130110509F0A0CFB9
:102E2000CE010E94A10D9CCF8D8B9ACFAF92BF9205
:102E3000CF92DF92EF92FF920F931F93CF93DF9386
:102E4000EC01F62E8D859E85442309F470C08430F4
:102E5000910590F50197B8F1CE010E942711CE019E
:102E60000E944211CBA088E0C89E60011124EE248C
:102E7000E394F11002C050E8E52E0DA11EA18CA133
:102E800090E0019643E0880F991F4A95E1F7C81634
:102E9000D906BCF5A880B980B601C5010E943C06E0
:102EA000101611062CF5FF2009F1880F9D8D911148
:102EB0008E2901501109F4CF059771F285E090E059
:102EC0009E878D8729C087E090E09EA38DA310E0A8
:102ED00000E02BE030E04CA16BA1888199810E9439
:102EE000861683E090E09E878D87B6CF8695DECFED
:102EF000482FB601C5010E94EA0A8FEFC81AD80A06
:102F0000BCCF0115110521F485E090E09E878D87E7
:102F1000015011091EA30DA3DF91CF911F910F91B5
:102F2000FF90EF90DF90CF90BF90AF9008958430E6
:102F3000910560F5019760F10BA188E0089F800181
:102F4000112430E8E32EF11002C0EE24E3948CA1AA
:102F500090E0019623E0880F991F2A95E1F7081762
:102F60001907FCF4C880D980B801C6010E943C064C
:102F7000482FFF20A1F046958D8D81114E29B80173
:102F8000C6010E94EA0A0F5F1F4FE1CF0597B1F417
:102F90001EA21DA283E090E09E878D87CDCF440FB7
:102FA000EBCF8DA19EA18730910521F426E030E082
:102FB0003E872D8701969EA38DA3AECF86E090E03D
:102FC0007FCFAF92BF92CF92DF92EF92FF920F939B
:102FD0001F93CF93DF93EC01F62EE42E8D859E8513
:102FE000222309F4DDC08430910598F50197C0F1E2
:102FF000CE010E942711CE010E9442110DA11EA1F7
:10300000EE2009F466C0EE24E394F11002C070E8EB
:10301000E72ECDA0DEA08CA190E0019663E0880FA2
:10302000991F6A95E1F708171907CCF5A880B980B0
:10303000B801C5010E943C069601121613062CF534
:10304000FF2009F1880F9D8D91118E2921503109A2
:10305000F4CF059769F285E090E09E878D8795C053
:1030600087E090E09EA38DA310E000E02BE030E02D
:103070004CA16BA1888199810E94861683E090E023
:103080009E878D87B5CF8695DECFB8016C197D09F7
:10309000482FC5010E94EA0A0F5F1F4FBACF10E008
:1030A00000E08DA19EA1081719070CF063C04D8D9B
:1030B00041956CA128E0629FB0011124695F7F4FA8
:1030C000601B710B888199810E94EA0A0F5F1F4F74
:1030D000E8CF8CA138E0839FC00111249C01201B04
:1030E000310B8901085F1F4FEE24E394F11002C0F9
:1030F00050E8E52ECDA0DEA08BA138E0839FC00173
:10310000112408171907FCF0A880B980B801C5017F
:103110000E943C069601121613065CF4FF2039F05B
:10312000880F9D8D91118E2921503109F4CF8695FC
:10313000F8CFB8016C0D7D1D482FC5010E94EA0A29
:1031400001501109D7CF10E000E08DA19EA1081712
:10315000190784F44D8D41956BA188E0689FB001FB
:103160001124600F711F888199810E94EA0A0F5F04
:103170001F4FEBCF8DA19EA1009721F425E030E0F9
:103180003E872D8701979EA38DA3DF91CF911F913D
:103190000F91FF90EF90DF90CF90BF90AF90089588
:1031A0008430910580F5019788F1EE20C1F10CA1E2
:1031B00028E0029F800111240A5F1F4F40E8B42ECF
:1031C000F11002C0BB24B394C880D9808BA138E031
:1031D000839FC0011124081719070CF450C0B801CF
:1031E000C6010E943C06482FFF20B9F046958D8D00
:1031F00081114B29B8016F5F7F4FC6010E94EA0A17
:1032000001501109E1CF059709F059C01EA21DA276
:1032100083E090E09E878D87C8CF440FE8CF0BA155
:1032200088E0089F800111240F5F1F4F30E8B32E04
:10323000F11002C0BB24B394C880D9808CA190E067
:10324000019623E0880F991F2A95E1F708171907BF
:10325000B4F4B801C6010E943C06482FFF2069F073
:1032600046958D8D81114B29B80161507109C601B8
:103270000E94EA0A0F5F1F4FDFCF440FF2CF888111
:1032800099814D8D4195EE2091F06BA128E0629FD0
:10329000B00111240E94EA0A8DA19EA187309105F8
:1032A00021F426E030E03E872D8701966CCF6CA19B
:1032B00038E0639FB0011124695F7F4FEBCF86E058
:1032C00090E0CBCE0F931F939B018A01FC014385B5
:1032D000415060E00E9486161F910F9108950F9350
:1032E0001F93FC0161A3062F10E022E030E044A10F
:1032F00063A1808191810E9486161F910F9108958C
:103300002F923F924F925F926F927F928F929F92F5
:10331000AF92BF92CF92DF92EF92FF920F931F93E3
:10332000CF93DF93CDB7DEB72B970FB6F894DEBF00
:103330000FBECDBF9B838A8304969D838C8350E010
:1033400040E06AE070E00E946219212C198206E0D8
:1033500010E035E0632E712C43E0442E512CAA81FD
:10336000BB8198968C919897281610F00C94552252
:103370009596ED91FC9124E4229EE00DF11D11241F
:10338000FB87EA8712A2858596858630910511F420
:103390000C942622248D2223C9F0C780D084F12CDE
:1033A000E12C0597C9F00E94A504EA85FB8583807E
:1033B0009480A580B680681979098A099B096C15E3
:1033C0007D058E059F0518F580E098C1AA85BB850F
:1033D0001996CD90DC90E3CF0E94A504AA85BB8509
:1033E00013968D909D90AD90BC901697AB01BC014B
:1033F000481959096A097B091B968D919C91B0E087
:10340000A0E0481759076A077B0768F6DDCFEA8511
:10341000FB8592809110D8CF0E94A504AA85BB8518
:1034200013966D937D938D939C93169781E092965E
:103430008C9392979C96AD90BC909D97A114B104EB
:1034400009F452C11D968D919C91009709F433C0E7
:10345000069709F449C1AA85BB855C963C905C97A8
:10346000332009F4F6C05896ED91FC913197EC3178
:10347000F10508F092C3E15CF54E0C94DD29531B75
:103480005C1B831B861B8D1B5D20901B061DD01DA6
:10349000131F5D1E9D1FDA21E121EB21E421F421A0
:1034A000ED21F621FD21002207220A2212221522F7
:1034B00019221C222322EA85FB85B7A6A6A6E4A032
:1034C000F8E0EF9E700111249701295F3F4F7901C9
:1034D000AA85BB8593968C91B8E08B9FE018F10884
:1034E0001124EFEFEE1AFE0AD12CC12CD5016D91FB
:1034F0005D016623C1F0EA85FB8524A935A970E04A
:1035000043A9CF010E94B90690E0C80ED91E892BAD
:1035100069F3D5018C91882349F3EA85FB8586A957
:10352000C80ED11CE3CFAA85BB855096DC92CE9203
:103530001F9756968D919C918130910509F455C045
:1035400028F0029771F1992493941DC0EA85FB85B8
:1035500084A190E0019623E0880F991F2A95E1F756
:103560009C0121503109328B218BEC14FD0490F425
:1035700083A1F8E08F9FC0011124AA85BB855496D2
:103580009C938E93539781E09826EA85FB85958AD4
:10359000848F61CF8C199D09EA85FB85948B838B81
:1035A000D2CFAA85BB8593968C91B8E08B9FC00142
:1035B0001124EA85FB85948B838BEC14FD0468F45D
:1035C00084A1F8E08F9FC00111240796AA85BB85CE
:1035D00052969C938E935197D6CF0197C80ED91EC1
:1035E000EA85FB85D28AC18AAECFAA85BB85939630
:1035F0002C91B8E02B9F90011124EC14FD0498F459
:10360000EA85FB8584A1F8E08F9FC001112407960D
:10361000AA85BB8552969C938E93519754963C9362
:103620002E935397B0CFEC18FD08F694E794E20E72
:10363000F31EEA85FB85F48AE38AF1E0CF1AD1080C
:10364000CE0CDF1CAA85BB855296DC92CE92519798
:103650007ACFAA85BB855A96ED91FC913197EC31D2
:10366000F10508F09AC2E95CF44E0C94DD29421E83
:103670005C1B831B861B8D1B5D20901B061DD01DB4
:10368000131F5D1E9D1FDA21E121EB21E421F421AE
:10369000ED21F621FD21002207220A221222152205
:1036A00019221C2223228A859B850E944211EA85C9
:1036B000FB857686658606C0432D61E08A859B85FD
:1036C0000E941617AA85BB855C968C915C971D9607
:1036D0002D913C91882329F081E02530310509F4B2
:1036E00080E0EA85FB85848F81E0AA85BB851D96F5
:1036F0002D913C912630310509F066CEB981B82B69
:10370000B98323942CCE432D60E0D8CF432D61E0C4
:103710008A859B850E94A70FD5CF432D60E0F8CF07
:10372000EA85FB8585859685332009F4EAC07F010B
:10373000F7E3EF0EF11C82309105A1F130F0039711
:1037400009F45BC0AA85BB8565C26A857B85695C17
:103750007F4F8A859B850E94B607811103C0AA8589
:10376000BB859AC68A859B850E942711EA85FB85C1
:1037700011AE10AE83A1F8E08F9FC0011124AA857D
:10378000BB8596969C938E93959751968D919C911F
:1037900052979B969C938E939A971E965C924E920C
:1037A0001D9790CFEA85FB8517AA80A9882381F011
:1037B000AA85BB851E967C926E921D97EA85FB8535
:1037C0008585968527A921110BC0059759F77ACFD2
:1037D000B7018A859B850E9472078111EFCFE8CFE0
:1037E000059709F46FCFAA85BB85D9961C921E92C6
:1037F000D8971E965C924E921D97EA85FB8565A12F
:1038000076A182A593A504A8F5A9E02DAA85BB857C
:10381000D8962D913C91D997E20FF31F40816817FC
:10382000790751F48D919C9111975D962C912111FE
:1038300040950E94EA0A3BCF411135C0AA85BB855D
:1038400096969C938E939597EA85FB8585A196A184
:1038500022A533A582179307C1F420AD31AD43A152
:10386000F8E04F9FA0011124AA85BB8596965C9332
:103870004E9395972F5F3F4FD9963C932E93D897B1
:1038800001979B969C938E939A97EA85FB8527A92F
:1038900080AD91AD2817190609F014CF82E090E0B1
:1038A000968785870FCFEA85FB85458D4195808179
:1038B00091810E94EA0AAA85BB8595966D917C91BB
:1038C00096976F5F7F4F96967C936E9395978D91A9
:1038D0009C9111975D96EC915D97D4962D913C91BA
:1038E000D597D8964D915C91240F351FEE2331F07A
:1038F000F901408140950E94EA0AA6CFD9014C9176
:10390000FACF8130910508F42ACF8430910568F010
:10391000059709F024CFEA85FB858189928993A7D1
:1039200082A796A385A356864586AA85BB85CD909A
:10393000DC9011975D968C91912C812C882319F045
:1039400088248A94912CEA85FB85A388B488AA856B
:10395000BB859596ED90FC90B701C6010E943C0690
:10396000EA85FB8522A533A58815190451F42A158B
:103970003B053CF0C901019793A782A736A325A375
:10398000E6CF2F5F3F4F2A153B050CF4E8CEEA85C2
:10399000FB8524A1F8E02F9F90011124295F3F4F60
:1039A000E216F3063CF4B7016F5F7F4F482FC60164
:1039B0000E94EA0AAA85BB855D964C915D97419568
:1039C00095966D917C9196978D919C910E94EA0AB3
:1039D000EA85FB8525A136A12F5F3F4F36A325A39E
:1039E00084A190E00196B3E0880F991FBA95E1F7A2
:1039F0002817390709F066CE82A593A59C012150AE
:103A0000310933A722A796A385A35CCEEA85FB855F
:103A100085859685332009F469C08430910508F0C6
:103A200042C0019708F443C08A859B850E942711F4
:103A30008A859B850E944211EA85FB85E3A0F8E018
:103A4000EF9E7001112499249394AA85BB859596C5
:103A5000CD90DC90969794968C91B8E08B9FC001A6
:103A6000112407968E159F0590F1EA85FB85A080AD
:103A7000B180B701C5010E943C06482F50E087E0A5
:103A800090E08C199D093320E9F002C055954795C7
:103A90008A95E2F7B701C5010E94EA0A3924FFEFCF
:103AA000EF1AFF0AD2CF059709F4BECF4BCEAA85F5
:103AB000BB8596961C921E9295971E965C924E928E
:103AC0001D97B2CF01C0440F8A95EAF7E3CF2FEFDD
:103AD000C21AD20AAA85BB859696DC92CE92959799
:103AE000B8E0CB16D10409F0EDCDE1CD84309105DD
:103AF000A0F50197A8F1AA85BB859396EC90B8E054
:103B0000EB9E700111249924939488248394EA8570
:103B1000FB85C5A0D6A084A1F8E08F9FC001112429
:103B200007968E159F0558F1AA85BB85AD90BC9070
:103B3000B701C5010E943C06482F50E09920C9F00A
:103B400001C0440FCA94EAF7B701C5010E94EA0A0E
:103B50009824BFEFEB1AFB0ADACF059709F0FFCDE7
:103B600021E030E0EA85FB8536A325A3568645860D
:103B7000C2CF02C055954795CA94E2F7E5CFEFEF63
:103B8000CE1ADE0AAA85BB859696DC92CE929597D0
:103B9000B8E0CB16D10409F095CDEA85FB8507C4C2
:103BA000EA85FB8585859685332009F45AC08430E3
:103BB000910500F58230910500F5009781F101979C
:103BC00009F0C0CDAA85BB8595966D917C9196979D
:103BD000CB01019696969C938E939597CD010E946A
:103BE0006F198A859B850E944211EA85FB8556865E
:103BF000458668CD059709F0A5CDAA85BB85959624
:103C00006D917C9196979A968D919C919B97861732
:103C10009707ECF41E967C926E921D9753CDAA8561
:103C2000BB8596961C921E92959791968C91919732
:103C300090E09B969C938E939A97CD010E942711BA
:103C400021E030E0EA85FB85368725873BCDCB0137
:103C50000196EA85FB8596A385A3CF010E946F1983
:103C600031CD8430910598F40197A0F0EA85FB8569
:103C700065A176A1CB01019777FFEBCF62A5CF01BC
:103C80000E946F198A859B850E94271168CD059730
:103C900009F065CDEA85FB8561A1862F90E093A7A9
:103CA00082A796A385A3CF010E946F198A859B8561
:103CB0000E944211AA85BB8570CDEA85FB8585856A
:103CC00096858230910509F45DC048F4009769F04B
:103CD0000197B9F031102EC186E090E0E6C0833044
:103CE000910509F492C00597A9F7AA85BB85969618
:103CF0001C921E929597E1E0F0E01E96FC93EE93E5
:103D00001D97AA85BB8595968D919C919697019656
:103D100096969C938E9395979396EC90B8E0EB9E35
:103D200070011124DD24D394EA85FB8525A136A1F9
:103D300084A190E00196A3E0880F991FAA95E1F76E
:103D4000E816F90694F4C701837099278217930740
:103D500044F4458D4D254195B701808191810E94A4
:103D6000EA0AFFEFEF1AFF0ADFCF82E090E024308B
:103D7000310509F0A7CCAA85BB851E969C938E932E
:103D80001D97A0CC8A859B850E942711332021F0A6
:103D90008A859B850E944211EA85FB8585A196A1B3
:103DA000019796A385A3E3A0F8E0EF9E700111248C
:103DB000DD24D394AA85BB8595962D913C91969749
:103DC00094968C91949790E00196E3E0880F991F68
:103DD000EA95E1F7E816F906A4F4C701837099277C
:103DE0008217930754F45D964C915D974D2541954C
:103DF000B7018D919C910E94EA0ABFEFEB1AFB0A72
:103E0000D9CF232B09F05ECCF0CE8A859B850E940A
:103E10002711332009F40FC18A859B850E94421126
:103E200085E090E0A8CFAA85BB851D968D919C91D9
:103E30008230910509F43CC038F08330910509F4D3
:103E40006EC0059709F0F5C0EA85FB85E3A0F8E0B0
:103E5000EF9E70011124AA85BB8594968C9194974E
:103E600090E0019673E0880F991F7A95E1F7E816C4
:103E7000F906CCF45D96BC905D97CD90DC90B701CF
:103E8000C6010E943C06B110809545E5E0FE4AEA75
:103E9000482BB1104095B701C6010E94EA0ABFEF56
:103EA000EB1AFB0AD8CF82E090E0EA85FB85F8CCDC
:103EB0008A859B850E942711332021F08A859B8566
:103EC0000E944211AA85BB859396EC90B8E0EB9EC8
:103ED00070011124EA85FB8584A190E0019663E0DE
:103EE000880F991F6A95E1F7E816F9060CF0E2CE03
:103EF000B58CC080D180B701C6010E943C06B110CC
:103F000080954AEAE0FE45E5482BB1104095B7019F
:103F1000C6010E94EA0AFFEFEF1AFF0ADBCF8A858B
:103F20009B850E942711332009F4D6CE8A859B8574
:103F30000E94421185E090E0B8CFEA85FB85858537
:103F400096858430910508F079C0019708F479C00E
:103F5000EA85FB8516A215A20E9422294B015C016D
:103F60000E9422296E837F8388879987AA85BB85D3
:103F70009596CD90DC90BFEFCB1ADB0AEA85FB85E6
:103F8000D6A2C5A2C501B4012BE030E040E050E06C
:103F90000E947A2970E09B0123553E4F7901D90197
:103FA000BC906E817F818885998528E030E040E073
:103FB00050E00E947A298B2D90E0062E02C0959544
:103FC00087950A94E2F780FF05C0B8E8CB16B3E105
:103FD000DB0614F281E090E001C0880F6A95EAF7F1
:103FE000B82AF701B0828A859B850E944211AA8572
:103FF000BB8596961C921E9295979396EC90B8E08E
:10400000EB9E70011124EA85FB8584A1F8E08F9F67
:10401000C001112407968E159F0510F5EDEAF1E019
:1040200081918F3F09F04ECB25EB31E02E173F07F2
:10403000B9F73110F5CE86E090E09DCE059709F0F6
:1040400049CEEDEAF1E0119228EB31E02E173F075F
:10405000D1F7AA85BB851E965C924E921D9778CFAC
:10406000AA85BB85CD90DC90B701C6010E943C06B5
:10407000AA85BB859596ED91FC91E355FE4F408155
:10408000311001C040954823B701C6010E94EA0AD9
:10409000EA85FB8585A196A101968B30910531F0CB
:1040A00096A385A3BFEFEB1AFB0AADCFAA85BB850C
:1040B00096961C921E929597F5CFAA85BB851D9664
:1040C0008D919C913110C8C18430910508F0C0C118
:1040D000019778F58A859B850E94E104EA85FB8536
:1040E00080A591A522A533A58217930724F431A7B3
:1040F00020A793A782A7AA85BB85DE968D919C9168
:10410000DF97892B09F4C8C1EA85FB8583A1F8E014
:104110008F9FC00111240197AA85BB8596969C9319
:104120008E93959797961C9297971E965C924E92B7
:104130001D978A859B850E944211EA85FB8585A192
:1041400096A1019696A385A3F12C6F01F1E4CF0E01
:10415000D11CD6012C91EA85FB8565A176A1822F21
:1041600090E0F21608F0E1C04F2D50E0641B750B93
:1041700084A190E0019633E0880F991F3A95E1F70A
:10418000681779072CF583A1F8E08F9FC0011124EF
:1041900068177907ECF0AA85BB858D919C911197E2
:1041A00097963C919797320390011124420F531F29
:1041B000DE96ED91FC91DF97E40FF51F5D962C9153
:1041C000222309F4B0C0E4914E2F40950E94EA0AE0
:1041D000F394BFCFEA85FB8517A284A190E00196F6
:1041E00053E0880F991F5A95E1F796A385A3568649
:1041F00045868A859B850E944211AA85BB85959636
:104200008D919C919697019796969C938E939597F6
:10421000F12C6D01B0E4CB0ED11CF6012081AA85F2
:10422000BB8595966D917C919697F21608F03AC0F1
:10423000EF2DF0E06E0F7F1F94968C91949790E095
:10424000019643E0880F991F4A95E1F768177907AF
:104250002CF593968C91B8E08B9FC00111246817C0
:104260007907E4F0AA85BB858D919C91119797966B
:104270004C9197974203A00111244E0F5F1FDC96CB
:10428000ED91FC91DD97E40FF51F5D962C912223B3
:1042900039F0E4914E2F40950E94EA0AF394BDCF85
:1042A0004491FACF7B01B1E0EB1AF108EA85FB8576
:1042B00082A593A5E816F9065CF0458D4195B701F6
:1042C000808191810E94EA0AF1E0EF1AF108EECFB5
:1042D000AA85BB8597968C9197978F5F97968C93BD
:1042E0009797082E000C990BFD01EE5BFF4F208184
:1042F0002817190609F014F497961C92EA85FB8595
:1043000083A1F8E08F9FC0011124D6012C91821B5C
:1043100091090197EA85FB8525A136A12817390760
:1043200009F0D0C9C6C9449151CF7B01E81AF90AF6
:10433000EA85FB8582A593A5E816F9065CF0458D14
:104340004195B701808191810E94EA0AF1E0EF1A5C
:10435000F108EECFAA85BB8597968C9197978F5FD2
:1043600097968C939797082E000C990BFD01ED5BA7
:10437000FF4F20812817190609F014F497961C9214
:10438000EA85FB8584A1F8E08F9F90011124295FC5
:104390003F4FD6018C91820F932F911D0196EA8594
:1043A000FB8525A136A12817390709F08BC9168787
:1043B000058788C9432D60E08A859B850E949711F7
:1043C00081C9432D61E0F8CF41E0632D8A859B854B
:1043D0000E94101377C940E0F8CF41E0632D8A8531
:1043E0009B850E9457126EC940E0F8CF432D60E0D4
:1043F0008A859B850E94751465C9432D61E0F8CFBD
:10440000432D60E08A859B850E948C155BC9432DF6
:1044100061E0F8CF232D41E061E08A859B850E9411
:10442000E11750C9232D40E0F7CF232D41E060E094
:10443000F4CF232D40E0FBCF432D61E08A859B859F
:104440000E94AC133FC9432D60E0F8CF81E056C90C
:10445000059709F43FCE83C98430910510F5019783
:1044600008F0C7CE8A859B850E94E104EA85FB851A
:1044700080A591A522A533A58217930724F431A71F
:1044800020A793A782A7AA85BB85DC968D919C91D6
:10449000DD97892B09F09ECE1E961C930E931D97D7
:1044A00011C9059709F4A5CE4DC941E050E06AE075
:1044B00070E08C819D810E94621989812B960FB6D4
:1044C000F894DEBF0FBECDBFDF91CF911F910F914A
:1044D000FF90EF90DF90CF90BF90AF909F908F9024
:1044E0007F906F905F904F903F902F9008950F9323
:1044F0001F93CF93DF93EC018B0188A541E050E03F
:10450000882321F0EDA1FEA146895789B801CE018B
:104510000E942604CE010E9480198111FBCFF80170
:1045200001900020E9F7CF010197801B910BDF91EB
:10453000CF911F910F9108951F920F920FB60F9276
:1045400011242F933F938F939F93AF93BF938091A9
:10455000230290912402A0912502B091260230916D
:10456000220223E0230F2D3758F50196A11DB11D1E
:10457000209322028093230290932402A093250289
:10458000B093260280911E0290911F02A0912002FA
:10459000B09121020196A11DB11D80931E0290933E
:1045A0001F02A0932002B0932102BF91AF919F916F
:1045B0008F913F912F910F900FBE0F901F901895E4
:1045C00026E8230F0296A11DB11DD2CFCF93DF9312
:1045D000CDB7DEB760970FB6F894DEBF0FBECDBF84
:1045E000789484B5826084BD84B5816084BD85B5CE
:1045F000826085BD85B5816085BD80916E008160DA
:1046000080936E001092810080918100826080937F
:104610008100809181008160809381008091800081
:104620008160809380008091B10084608093B100AC
:104630008091B00081608093B00080917A008460A6
:1046400080937A0080917A00826080937A008091D2
:104650007A00816080937A0080917A0080688093EC
:104660007A001092C1008CB58C7F81608CBD8DB5B5
:104670008E7F8DBD8091C501882309F40EC11FB7BF
:10468000F8948091B801811124C0EEEEF6E0849197
:10469000E2E0F7E09491E82FF0E0EE0FFF1FE65222
:1046A000F94FA591B491EC91E92321F461E08AE0FE
:1046B0000E9459048AE00E94CA038CB580618CBDB7
:1046C0008CB580648CBD8DE00E94CA038BE00E9493
:1046D000CA038091B8018F5F8093B8011FBF80919A
:1046E000C4010E94CA0361E08091C4010E94590480
:1046F0001092CE011092CD011092D0011092CF01F4
:104700008091D3019091D4018856904051F088E671
:1047100090E09093D4018093D3018DEB91E00E94BF
:1047200001051091C80139E0139FC00111240E94B6
:10473000002A7C019093CA018093C901812F90E0E7
:10474000880F991F0E94002A9093CC018093CB017F
:10475000892B09F4ABC0EF2809F4A8C050E040E071
:1047600063E070E08DEB91E00E94621947E050E059
:1047700061E070E08DEB91E00E94621947E050E04B
:1047800062E070E08DEB91E00E94621950E040E041
:1047900064E070E08DEB91E00E9462194091C801E5
:1047A000415060E08DEB91E00E94190E50E040E036
:1047B00070E060E08DEB91E00E94621950E040E013
:1047C0006BE070E08DEB91E00E94621941E050E0F7
:1047D0006AE070E08DEB91E00E94621911E001E067
:1047E0000093E10186E490E00E94002AFC01DC01D4
:1047F00081E090E08D939D93138212821482158242
:1048000016821782108686E090E0908B878711A22F
:1048100010A212A287E083A315A216A217A616A6BD
:1048200014AA13AA15AA17AA16AA00AF15AE14AE99
:1048300017AE16AEE05CFF4F11821082B093DF011D
:10484000A093DE01112309F4CEC0AB2B09F4CBC039
:1048500000E024E4B22E3DEBE32E31E0F32E909104
:10486000E101091728F5112309F4BDC0C090DE014C
:10487000D090DF010B9DC00CD11C1124F601F182F8
:10488000E082C6010E9461060F5F11E0F60184A973
:1048900095A9892B21F710E0E2CF8091C2010E94F7
:1048A000CA038091C3010E94CA0319CF10E097CFB9
:1048B0008091E001112309F496C04FEF480F913029
:1048C00041F4481730F4E091DE01F091DF0113A2CA
:1048D00044A307E010E022E030E060E08DEB91E0DF
:1048E0000E9486169091E101A091DE01B091DF0156
:1048F000FD0180E02AE030E0981741F030872783FF
:10490000328721878F5FEC5BFF4FF6CF9923C9F089
:1049100017968D919C9118974AE0489F9001499F66
:10492000300D112480E094E44091E101841760F49B
:10493000FD01899FE00DF11D1124348723878F5FCE
:10494000F3CF90E080E0E8CF10E094E4F92E01E0AE
:104950008091DE019091DF012091E101121750F466
:104960001F9D800D911D1124FC0106AB0E94610664
:104970001F5FEECF20E034E44091E101241748F4BA
:10498000FC01239FE00DF11D1124178E168E2F5F61
:10499000F3CF20E044E43091E101FC01231768F0FB
:1049A00020E041E050E0231781F0518F408F138EBB
:1049B000128E2F5FEC5BFF4FF6CF249FE00DF11DB1
:1049C0001124178A168A2F5FE6CF20E034E4409145
:1049D000E101241740F4FC01239FE00DF11D112497
:1049E000158E2F5FF4CF8091E1019091E001953019
:1049F00050F08823B1F1E091DE01F091DF0182E017
:104A000083A384E084A310E004E48091E1011817FB
:104A100068F48091DE019091DF0165E0109F800DC8
:104A2000911D11240E946F191F5FEFCF8823C9F0D9
:104A30000091DE011091DF0122E935E0F80133AF8A
:104A400022AF80819181FC01468957894217530723
:104A500029F0FC01378B268B0E940105C8010E94BA
:104A600061068091E101882331F0E091DE01F0914F
:104A7000DF01178A168A0E94A504609318027093BA
:104A8000190280931A0290931B020E94A5042B0125
:104A90003C0180911C0290911D028130910509F426
:104AA000A2C048E853E160E070E0009721F048EBD5
:104AB0005BE060E070E00091180210911902209113
:104AC0001A0230911B0273016201C01AD10AE20A74
:104AD000F30A97018601401751076207730708F030
:104AE00082C002E010E0892B11F010E000E0EE241B
:104AF000E394F12CF0921D02E0921C02109303014A
:104B00000093020110921302109212020E94A50457
:104B1000609318027093190280931A0290931B02FB
:104B2000012B09F0E0C197E09093EA0184E08093C3
:104B3000EB0121E02093EC019093ED011092EE0146
:104B40001092EF011092F0011092F10195E0909314
:104B5000F2019093F30196E09093F4018093F501B4
:104B60001092F6011092F7011092F8011092F901DB
:104B700082E08093FA0193E09093FB018093FC0123
:104B80008093FD011092FE011092FF01109200022D
:104B90001092010280930202909303028093040218
:104BA00080930502109206021092070210920802EA
:104BB000109209020AE012E00E94222924E130E06A
:104BC00040E050E00E947A296B5F7F4F8F4F9F4FEC
:104BD000F801619371938F01B2E1CB2EB2E0DB2E2D
:104BE000CE16DF0649F78091140290911502A0912C
:104BF0001602B0911702A3019201281B390B4A0B30
:104C00005B0BDA01C901C297A105B10508F431C1F6
:104C1000409214025092150260921602709217028E
:104C2000809104019091050101978B3F3FEF93071D
:104C30000CF497C1909305018093040180911C02AC
:104C400090911D02019759F58091120290911302E3
:104C500001969093130280931202EAE0F2E021E0C1
:104C600041915191841795070CF420E0A2E1CA2EDE
:104C7000A2E0DA2ECE16DF0699F7222381F080918A
:104C800002019091030190931D0280931C024092B7
:104C900018025092190260921A0270921B02EFE001
:104CA0008E2E912CB12CA12C80911C0290911D0272
:104CB0008130910509F065C1F501EE0FFF1FE65F38
:104CC000FD4F208131818091120290911302821751
:104CD00093070CF04DC10E9422292FE030E040E004
:104CE00050E00E947A29DB0163E0AA0FBB1F6A959E
:104CF000E1F7A25EBE4FEC911196CC9011971296FF
:104D0000DC9012971396EC9013971496FC901497DE
:104D100015961C9115971696FC9116971796AC91BF
:104D20002E2F3C2D4D2D5E2D6F2D712F8F2F9A2FF5
:104D300008E10E94E529222E2E2F3C2D4D2D5E2DBF
:104D40006F2D712F8F2F9A2F00E10E94E529B22F2E
:104D50002E2F3C2D4D2D5E2D6F2D712F8F2F9A2FC5
:104D600008E00E94E529F12CE12C312CCB2ED12C2E
:104D7000DE86CD86C22ED12CD88ACF860E2F10E0AB
:104D8000C1010E2C02C0959587950A94E2F7282F51
:104D900021702F8318864F81588583E0440F551F5B
:104DA0008A95E1F78D859E850E2C02C09595879595
:104DB0000A94E2F7382F317039871A8689859A85E7
:104DC000880F991F880F991F482B8F8598890E2C63
:104DD00002C0959587950A94E2F7582F51705B872A
:104DE0001C868B859C85880F991F482BC090E801F5
:104DF000D090E901C8010E2C02C0959587950A94C0
:104E0000E2F78170482BB4016E197F09C6010E9438
:104E1000EA0A6FEFE61AF60A83E0E816F10409F0F1
:104E2000AFCFB4016350710940E0C6010E94EA0AA5
:104E30009FEFA91AB90AE4E08E1A9108F4E0AF16C0
:104E4000B10409F031CF0091040110910501003146
:104E5000110528F441E0B801C6010E942309B801F8
:104E60006B5F7F4F6031710520F440E0C6010E9406
:104E700023098091E4019091E501A091E601B091B0
:104E8000E70173016201C81AD90AEA0AFB0AD701CD
:104E9000C601843F9140A105B10508F4F4C04092D9
:104EA000E4015092E5016092E6017092E701909171
:104EB000010181E09827909301012091E201809106
:104EC0000001992309F4E7C09091E3019F5F9C33AF
:104ED00008F0A1C09093E3012091E20130E08091BD
:104EE000000190E0AEC087E08093EA0191E09093EA
:104EF000EB0123E02093EC019093ED011092EE0181
:104F00001092EF011092F0011092F1018093F201E2
:104F100095E09093F3012093F4019093F5011092A2
:104F2000F6011092F7011092F8011092F9018093A6
:104F3000FA0192E09093FB019093FC018093FD01B4
:104F40001092FE011092FF011092000210920102D5
:104F500010920202109203021092040210920502B3
:104F600021CE4FE050E0509305014093040166CEFE
:104F7000D50153E0AA0FBB1F5A95E1F7A651BE4FCA
:104F8000BACE892B99F4A114B10429F121E0A2161B
:104F9000B10449F5E5E025E0C22E36E0D32E44E029
:104FA000E42EF12C10E0F0E0A0E0BACEA114B104A0
:104FB00011F131E0A316B10431F1E7E082E0C82E2F
:104FC00092E0D92E42E0A416B10451F0E0E0C12CE9
:104FD000D12CE12CE6CFE7E004E0C02EDD24D39411
:104FE00017E0E12EDECFE2E0F3E0CF2EA2E0DA2EF2
:104FF000B2E0EB2ED6CFE7E0CC24C39473E0D72EFB
:10500000EE24E394CECFE7E045E0C42E53E0D52E66
:1050100065E0E62EC6CF1092E3012F5F2C3318F423
:105020002093E20159CF1092E2018F5F883118F48A
:105030008093000151CF1092000130E020E090E019
:1050400080E046E951E03F932F939F938F935F93C6
:105050004F9341E050E04C0F5D1F5F934F930E94D0
:10506000352B50E040E0BE016F5F7F4F89EB91E050
:105070000E94260489EB91E00E9480190FB6F894F3
:10508000DEBF0FBECDBFE0E0F0E0EF2B09F4FDCCBA
:105090000E940000FACC30E090E040EA51E0D3CF2B
:1050A000E9EBF1E01382128284E191E09183808345
:1050B000118612868AE0838781E084872AEA31E0BC
:1050C0003687258795E09787808F21E030E035830C
:1050D000248386831782108697A38DEB91E09093AB
:1050E000E9018093E80108950F931F93CF93DF9315
:1050F00084E191E09093BA018093B901C091DE01FF
:10510000D091DF01209759F1FE0132972081318142
:1051100044E4429FC001439F900D1124C80FD91F42
:105120008091DE019091DF018C179D07A1F0C4549E
:10513000D10989A99AA9009739F0FC010481158148
:105140000E949C2AC801F7CF8CA99DA9009741F322
:105150000E949C2AE5CFCE0102970E949C2A809152
:10516000C501882399F09FB7F8948091B8018823EE
:1051700019F081508093B8018091B801811105C068
:105180008CB58F7B8CBD1092AC019FBF8091C90103
:105190009091CA010E949C2A8091CB019091CC01F0
:1051A000DF91CF911F910F910C949C2A8F929F9227
:1051B000AF92BF92CF92DF92EF92FF92CF93DF93A5
:1051C000EC01688179818A819B8161157105810576
:1051D000910521F464E279ED8BE597E02DE133EF61
:1051E00041E050E00E947A2949015A019B01AC013B
:1051F000A7EAB1E40E9499296B017C01ACEEB4EFFF
:10520000A50194010E94A729C60ED71EE81EF91E0B
:10521000F7FE06C081E0C81AD108E10880E8F80A64
:10522000C882D982EA82FB82C701B6019F77DF91EB
:10523000CF91FF90EF90DF90CF90BF90AF909F9075
:105240008F9008958F929F92AF92BF92CF92DF92EC
:10525000EF92FF9260910601709107018091080121
:1052600090910901611571058105910521F464E2B0
:1052700079ED8BE597E02DE133EF41E050E00E94BE
:105280007A2949015A019B01AC01A7EAB1E40E94C5
:1052900099296B017C01ACEEB4EFA50194010E9449
:1052A000A729C60ED71EE81EF91EF7FE06C081E02C
:1052B000C81AD108E10880E8F80AC0920601D09225
:1052C0000701E0920801F0920901C701B6019F773A
:1052D000FF90EF90DF90CF90BF90AF909F908F9016
:1052E00008956093060170930701809308019093DD
:1052F00009010895052E97FB1EF400940E94912940
:1053000057FD07D00E94AC2907FC03D04EF40C9443
:10531000912950954095309521953F4F4F4F5F4FC4
:10532000089590958095709561957F4F8F4F9F4F11
:1053300008950E94CE29A59F900DB49F900DA49F23
:10534000800D911D11240895B7FF0C9499290E9496
:105350009929821B930B0895A1E21A2EAA1BBB1B4D
:10536000FD010DC0AA1FBB1FEE1FFF1FA217B30731
:10537000E407F50720F0A21BB30BE40BF50B661F47
:10538000771F881F991F1A9469F76095709580950B
:1053900090959B01AC01BD01CF010895A29FB00182
:1053A000B39FC001A39F700D811D1124911DB29F59
:1053B000700D811D1124911D0895EE0FFF1F0590A2
:1053C000F491E02D099497FD1094002E083098F088
:1053D0000850232F342F452F562F672F782F892FD2
:1053E000912DF4CF15949795879577956795579557
:1053F0004795379527950A95AAF71124002D08950A
:105400000F931F93CF93DF938230910510F482E0C6
:1054100090E0E0912902F0912A0230E020E0B0E033
:10542000A0E0309799F42115310509F44AC0281BF2
:10543000390B24303105D8F58A819B8161157105BE
:1054400089F1FB0193838283FE0111C04081518168
:105450000281138148175907E0F04817590799F45A
:10546000109761F012960C93129713961C93329634
:10547000CF01DF91CF911F910F91089500932902E1
:1054800010932A02F4CF2115310551F0421753072A
:1054900038F0A901DB019A01BD01DF01F801C1CF9C
:1054A000EF01F9CF90932A0280932902CDCFFE011C
:1054B000E20FF31F8193919322503109398328839E
:1054C000D7CF2091270230912802232B41F420913D
:1054D0000C0130910D013093280220932702209176
:1054E0000A0130910B012115310541F42DB73EB76A
:1054F00040910E0150910F01241B350BE0912702C2
:10550000F0912802E217F307A0F42E1B3F0B281797
:10551000390778F0AC014E5F5F4F2417350748F02C
:105520004E0F5F1F5093280240932702819391935F
:105530009FCFF0E0E0E09CCFCF93DF930097E9F0BE
:10554000FC01329713821282A0912902B0912A02A3
:10555000ED0130E020E01097A1F420813181820F2D
:10556000931F20912702309128022817390709F04C
:1055700061C0F0932802E0932702DF91CF91089554
:10558000EA01CE17DF07E8F54A815B819E014115EC
:105590005105B1F7E901FB83EA8349915991C40FA1
:1055A000D51FEC17FD0761F4808191810296840F6D
:1055B000951FE90199838883828193819B838A83E4
:1055C000F0E0E0E012968D919C9113970097B9F569
:1055D0002D913C911197CD010296820F931F20913E
:1055E0002702309128022817390739F6309751F5EC
:1055F00010922A0210922902B0932802A093270247
:10560000BCCFD383C28340815181840F951FC817BB
:10561000D90761F44E5F5F4F88819981480F591F08
:10562000518340838A819B81938382832115310535
:1056300009F0B0CFF0932A02E09329029ECFFD013A
:10564000DC01C0CF13821282D7CFFB01DC0102C084
:1056500001900D9241505040D8F70895DC0101C0EF
:105660006D9341505040E0F70895AEE0B0E0EBE3B9
:10567000FBE20C94E42D0D891E8986E08C831A834D
:1056800009838FEF9FE79E838D83AE01475E5F4F57
:105690006F89788DCE0101960E94582B2F81388515
:1056A000020F131FF80110822E96E4E00C94002ED6
:1056B000ABE0B0E0EEE5FBE20C94D62D7C013B01C3
:1056C0008A01FC0117821682838181FFC8C1CE0145
:1056D00001965C01F7019381F30193FD859193FF9E
:1056E00081913F01882309F453C1853239F493FD38
:1056F000859193FF81913F01853229F4B70190E0B4
:105700000E94482DE7CF912C212C312CFFE1F3157D
:1057100038F08B3211F190F4803209F1833229F1A3
:1057200037FC3CC020ED280F2A3050F536FE20C053
:105730008AE0989E200D1124922E06C08D3291F0A1
:10574000803371F7689430F8F30193FD859193FFEE
:1057500081913F018111DACF21C0689431F86894BA
:1057600032F8F2CF689433F8EFCF689434F8ECCF86
:10577000EAE02E9E200D1124222E689435F8E4CF05
:105780008E3229F436FC04C1689436F8DDCF8C36AD
:1057900019F4689437F8D8CF8836B1F2982F9F7DE6
:1057A00095549330E0F08336A1F18337C1F183350E
:1057B00009F063C02801F2E04F0E511CF801C080CF
:1057C000D180692D70E036FC02C06FEF7FEFC6011B
:1057D0000E94322D4C01689437F882010AC00C5F98
:1057E0001F4FFFE3F98388248394912C6501E8948B
:1057F00037F833FE2DC0522C8114910471F55520D9
:1058000009F468CFB70180E290E00E94482D5A94D5
:10581000F6CFF801808189830E5F1F4FE4CF280106
:10582000F2E04F0E511CF801C080D180692D70E06C
:1058300036FC02C06FEF7FEFC6010E943D2D4C0188
:105840008201D5CFB70180E290E00E94482D2A94D2
:105850002814190409F0B0F7CECFF60137FC859172
:1058600037FE81916F01B70190E00E94482D5110E1
:105870005A94F1E08F1A9108BFCF843619F0893617
:1058800009F077C0F80137FE6BC0608171818281B9
:1058900093810C5F1F4FF32DFF763F2E97FF09C0BA
:1058A00090958095709561957F4F8F4F9F4F68942D
:1058B00037F82AE030E0A5010E94782DC82ECA18DA
:1058C0008C2C432C36FE0CC0E89440F8C91440F4EC
:1058D00034FE05C032FC03C0F32DFE7E4F2E892C12
:1058E00044FE95C0FE01EC0DF11D8081803309F06E
:1058F00087C0242D297E422E842D8870582E43FC8B
:1059000095C040FE8FC09C2C821418F42C0C922C55
:10591000981844FE91C0B70180E390E00E94482DA2
:1059200042FE09C088E790E041FE02C088E590E0B1
:10593000B7010E94482DC91408F48AC0CA94D12C1A
:105940009FEFC91AD90ACA0CDB1CF60182916F01BC
:10595000B70190E00E94482DAC14BD04B1F74FCFC1
:1059600060817181072E000C880B990B0E5F1F4F11
:1059700092CFD32CE894D4F82AE030E0853739F17F
:10598000232D297FD22E8F3601F148F48835A9F0D6
:10599000F701868197812B96E2E10C94F22D8037F6
:1059A00049F08837A9F7D4FE02C06894D2F820E104
:1059B00030E00DC06894D4F8F6CF34FE03C0822FD7
:1059C0008660D82E20E132E002C028E030E0F80105
:1059D000D7FE0FC060817181828193810C5F1F4F60
:1059E000A5010E94782DC82ECA183D2CE89437F8DE
:1059F00067CF6081718190E080E00E5F1F4FF0CF34
:105A000042FC02C0839478CF8394839475CF842D15
:105A1000867809F471CFF6CFB70180E290E00E945A
:105A2000482D83948214C0F3512C73CF522C5818F4
:105A3000821408F46ECFF8CF842D867809F47BCFDA
:105A40008BE241FE80E247FC8DE2B70190E071CF2E
:105A5000B70180E390E00E94482D9A946CCF8FEFBD
:105A60009FEF99CFFC010590615070400110D8F76D
:105A7000809590958E0F9F1F0895FC016150704096
:105A800001900110D8F7809590958E0F9F1F089573
:105A90000F931F93CF93DF93182F092FEB018B8167
:105AA00081FD09C01FEF0FEF812F902FDF91CF9164
:105AB0001F910F91089582FF14C02E813F818C8128
:105AC0009D81281739073CF4E881F981CF010196BF
:105AD0009983888310838E819F8101969F838E8313
